{
    "contractName": "Inbox",
    "abi": [
        {
            "inputs": [
                {
                    "internalType": "string",
                    "name": "initialMessage",
                    "type": "string"
                }
            ],
            "stateMutability": "nonpayable",
            "type": "constructor"
        },
        {
            "inputs": [],
            "name": "getMessage",
            "outputs": [
                {
                    "internalType": "string",
                    "name": "",
                    "type": "string"
                }
            ],
            "stateMutability": "view",
            "type": "function"
        },
        {
            "inputs": [],
            "name": "message",
            "outputs": [
                {
                    "internalType": "string",
                    "name": "",
                    "type": "string"
                }
            ],
            "stateMutability": "view",
            "type": "function"
        },
        {
            "inputs": [
                {
                    "internalType": "string",
                    "name": "newMessage",
                    "type": "string"
                }
            ],
            "name": "setMessage",
            "outputs": [],
            "stateMutability": "nonpayable",
            "type": "function"
        }
    ],
    "bytecode": "608060405234801561000f575f80fd5b5060405161066738038061066783398101604081905261002e91610054565b5f6100398282610188565b5050610242565b634e487b7160e01b5f52604160045260245ffd5b5f60208284031215610064575f80fd5b81516001600160401b03811115610079575f80fd5b8201601f81018413610089575f80fd5b80516001600160401b038111156100a2576100a2610040565b604051601f8201601f19908116603f011681016001600160401b03811182821017156100d0576100d0610040565b6040528181528282016020018610156100e7575f80fd5b8160208401602083015e5f91810160200191909152949350505050565b600181811c9082168061011857607f821691505b60208210810361013657634e487b7160e01b5f52602260045260245ffd5b50919050565b601f82111561018357805f5260205f20601f840160051c810160208510156101615750805b601f840160051c820191505b81811015610180575f815560010161016d565b50505b505050565b81516001600160401b038111156101a1576101a1610040565b6101b5816101af8454610104565b8461013c565b6020601f8211600181146101e7575f83156101d05750848201515b5f19600385901b1c1916600184901b178455610180565b5f84815260208120601f198516915b8281101561021657878501518255602094850194600190920191016101f6565b508482101561023357868401515f19600387901b60f8161c191681555b50505050600190811b01905550565b6104188061024f5f395ff3fe608060405234801561000f575f80fd5b506004361061003f575f3560e01c8063368b877214610043578063ce6d41de14610058578063e21f37ce14610076575b5f80fd5b6100566100513660046101bb565b61007e565b005b61006061008d565b60405161006d919061026e565b60405180910390f35b61006061011c565b5f6100898282610327565b5050565b60605f805461009b906102a3565b80601f01602080910402602001604051908101604052809291908181526020018280546100c7906102a3565b80156101125780601f106100e957610100808354040283529160200191610112565b820191905f5260205f20905b8154815290600101906020018083116100f557829003601f168201915b5050505050905090565b5f8054610128906102a3565b80601f0160208091040260200160405190810160405280929190818152602001828054610154906102a3565b801561019f5780601f106101765761010080835404028352916020019161019f565b820191905f5260205f20905b81548152906001019060200180831161018257829003601f168201915b505050505081565b634e487b7160e01b5f52604160045260245ffd5b5f602082840312156101cb575f80fd5b813567ffffffffffffffff8111156101e1575f80fd5b8201601f810184136101f1575f80fd5b803567ffffffffffffffff81111561020b5761020b6101a7565b604051601f8201601f19908116603f0116810167ffffffffffffffff8111828210171561023a5761023a6101a7565b604052818152828201602001861015610251575f80fd5b816020840160208301375f91810160200191909152949350505050565b602081525f82518060208401528060208501604085015e5f604082850101526040601f19601f83011684010191505092915050565b600181811c908216806102b757607f821691505b6020821081036102d557634e487b7160e01b5f52602260045260245ffd5b50919050565b601f82111561032257805f5260205f20601f840160051c810160208510156103005750805b601f840160051c820191505b8181101561031f575f815560010161030c565b50505b505050565b815167ffffffffffffffff811115610341576103416101a7565b6103558161034f84546102a3565b846102db565b6020601f821160018114610387575f83156103705750848201515b5f19600385901b1c1916600184901b17845561031f565b5f84815260208120601f198516915b828110156103b65787850151825560209485019460019092019101610396565b50848210156103d357868401515f19600387901b60f8161c191681555b50505050600190811b0190555056fea2646970667358221220ed07826aa7102ab1987bfe57e4e84cd88bb50b42bb97a9779ea774680f96834a64736f6c634300081a0033",
    "sourcePath": "/Users/pt4shk4/work/solidity/inbox-updated/contracts/Inbox.sol",
    "compiler": {
        "name": "solc",
        "version": "0.8.26+commit.8a97fa7a"
    },
    "functionHashes": {
        "getMessage()": "ce6d41de",
        "message()": "e21f37ce",
        "setMessage(string)": "368b8772"
    },
    "gasEstimates": {
        "creation": {
            "codeDepositCost": "209600",
            "executionCost": "infinite",
            "totalCost": "infinite"
        },
        "external": {
            "getMessage()": "infinite",
            "message()": "infinite",
            "setMessage(string)": "infinite"
        }
    }
}